{
  "contractName": "LandRegistry",
  "abi": [
    {
      "inputs": [],
      "payable": false,
      "stateMutability": "nonpayable",
      "type": "constructor"
    },
    {
      "anonymous": false,
      "inputs": [
        {
          "indexed": false,
          "internalType": "uint256",
          "name": "id",
          "type": "uint256"
        }
      ],
      "name": "PropertyRemoved",
      "type": "event"
    },
    {
      "constant": true,
      "inputs": [
        {
          "internalType": "uint256",
          "name": "",
          "type": "uint256"
        }
      ],
      "name": "land",
      "outputs": [
        {
          "internalType": "address payable",
          "name": "id",
          "type": "address"
        },
        {
          "internalType": "string",
          "name": "ipfsHash",
          "type": "string"
        },
        {
          "internalType": "string",
          "name": "laddress",
          "type": "string"
        },
        {
          "internalType": "uint256",
          "name": "lamount",
          "type": "uint256"
        },
        {
          "internalType": "uint256",
          "name": "key",
          "type": "uint256"
        },
        {
          "internalType": "string",
          "name": "isGovtApproved",
          "type": "string"
        },
        {
          "internalType": "string",
          "name": "isAvailable",
          "type": "string"
        },
        {
          "internalType": "address",
          "name": "requester",
          "type": "address"
        },
        {
          "internalType": "enum LandRegistry.reqStatus",
          "name": "requestStatus",
          "type": "uint8"
        }
      ],
      "payable": false,
      "stateMutability": "view",
      "type": "function"
    },
    {
      "constant": true,
      "inputs": [
        {
          "internalType": "address",
          "name": "",
          "type": "address"
        }
      ],
      "name": "users",
      "outputs": [
        {
          "internalType": "address",
          "name": "userid",
          "type": "address"
        },
        {
          "internalType": "string",
          "name": "uname",
          "type": "string"
        },
        {
          "internalType": "uint256",
          "name": "ucontact",
          "type": "uint256"
        },
        {
          "internalType": "string",
          "name": "uemail",
          "type": "string"
        },
        {
          "internalType": "uint256",
          "name": "upostalCode",
          "type": "uint256"
        },
        {
          "internalType": "string",
          "name": "city",
          "type": "string"
        },
        {
          "internalType": "bool",
          "name": "exist",
          "type": "bool"
        }
      ],
      "payable": false,
      "stateMutability": "view",
      "type": "function"
    },
    {
      "constant": false,
      "inputs": [
        {
          "internalType": "address",
          "name": "uid",
          "type": "address"
        },
        {
          "internalType": "string",
          "name": "_uname",
          "type": "string"
        },
        {
          "internalType": "uint256",
          "name": "_ucontact",
          "type": "uint256"
        },
        {
          "internalType": "string",
          "name": "_uemail",
          "type": "string"
        },
        {
          "internalType": "uint256",
          "name": "_ucode",
          "type": "uint256"
        },
        {
          "internalType": "string",
          "name": "_ucity",
          "type": "string"
        }
      ],
      "name": "addUser",
      "outputs": [
        {
          "internalType": "bool",
          "name": "",
          "type": "bool"
        }
      ],
      "payable": false,
      "stateMutability": "nonpayable",
      "type": "function"
    },
    {
      "constant": true,
      "inputs": [
        {
          "internalType": "address",
          "name": "uid",
          "type": "address"
        }
      ],
      "name": "getUser",
      "outputs": [
        {
          "internalType": "address",
          "name": "",
          "type": "address"
        },
        {
          "internalType": "string",
          "name": "",
          "type": "string"
        },
        {
          "internalType": "uint256",
          "name": "",
          "type": "uint256"
        },
        {
          "internalType": "string",
          "name": "",
          "type": "string"
        },
        {
          "internalType": "uint256",
          "name": "",
          "type": "uint256"
        },
        {
          "internalType": "string",
          "name": "",
          "type": "string"
        },
        {
          "internalType": "bool",
          "name": "",
          "type": "bool"
        }
      ],
      "payable": false,
      "stateMutability": "view",
      "type": "function"
    },
    {
      "constant": false,
      "inputs": [
        {
          "internalType": "address payable",
          "name": "_id",
          "type": "address"
        },
        {
          "internalType": "string",
          "name": "_ipfsHash",
          "type": "string"
        },
        {
          "internalType": "string",
          "name": "_laddress",
          "type": "string"
        },
        {
          "internalType": "uint256",
          "name": "_lamount",
          "type": "uint256"
        },
        {
          "internalType": "uint256",
          "name": "_key",
          "type": "uint256"
        },
        {
          "internalType": "string",
          "name": "status",
          "type": "string"
        },
        {
          "internalType": "string",
          "name": "_isAvailable",
          "type": "string"
        }
      ],
      "name": "Registration",
      "outputs": [
        {
          "internalType": "bool",
          "name": "",
          "type": "bool"
        }
      ],
      "payable": false,
      "stateMutability": "nonpayable",
      "type": "function"
    },
    {
      "constant": true,
      "inputs": [
        {
          "internalType": "string",
          "name": "_laddress",
          "type": "string"
        },
        {
          "internalType": "string",
          "name": "_lamount",
          "type": "string"
        }
      ],
      "name": "computeId",
      "outputs": [
        {
          "internalType": "uint256",
          "name": "",
          "type": "uint256"
        }
      ],
      "payable": false,
      "stateMutability": "view",
      "type": "function"
    },
    {
      "constant": true,
      "inputs": [],
      "name": "viewAssets",
      "outputs": [
        {
          "internalType": "uint256[]",
          "name": "",
          "type": "uint256[]"
        }
      ],
      "payable": false,
      "stateMutability": "view",
      "type": "function"
    },
    {
      "constant": true,
      "inputs": [],
      "name": "Assets",
      "outputs": [
        {
          "internalType": "uint256[]",
          "name": "",
          "type": "uint256[]"
        }
      ],
      "payable": false,
      "stateMutability": "view",
      "type": "function"
    },
    {
      "constant": true,
      "inputs": [
        {
          "internalType": "uint256",
          "name": "id",
          "type": "uint256"
        }
      ],
      "name": "landInfoOwner",
      "outputs": [
        {
          "internalType": "address payable",
          "name": "",
          "type": "address"
        },
        {
          "internalType": "string",
          "name": "",
          "type": "string"
        },
        {
          "internalType": "uint256",
          "name": "",
          "type": "uint256"
        },
        {
          "internalType": "string",
          "name": "",
          "type": "string"
        },
        {
          "internalType": "string",
          "name": "",
          "type": "string"
        },
        {
          "internalType": "address",
          "name": "",
          "type": "address"
        },
        {
          "internalType": "enum LandRegistry.reqStatus",
          "name": "",
          "type": "uint8"
        }
      ],
      "payable": false,
      "stateMutability": "view",
      "type": "function"
    },
    {
      "constant": false,
      "inputs": [
        {
          "internalType": "uint256",
          "name": "_id",
          "type": "uint256"
        },
        {
          "internalType": "string",
          "name": "status",
          "type": "string"
        },
        {
          "internalType": "string",
          "name": "_isAvailable",
          "type": "string"
        }
      ],
      "name": "govtStatus",
      "outputs": [
        {
          "internalType": "bool",
          "name": "",
          "type": "bool"
        }
      ],
      "payable": false,
      "stateMutability": "nonpayable",
      "type": "function"
    },
    {
      "constant": false,
      "inputs": [
        {
          "internalType": "uint256",
          "name": "property",
          "type": "uint256"
        }
      ],
      "name": "makeAvailable",
      "outputs": [],
      "payable": false,
      "stateMutability": "nonpayable",
      "type": "function"
    },
    {
      "constant": false,
      "inputs": [
        {
          "internalType": "uint256",
          "name": "id",
          "type": "uint256"
        }
      ],
      "name": "requstToLandOwner",
      "outputs": [],
      "payable": false,
      "stateMutability": "nonpayable",
      "type": "function"
    },
    {
      "constant": false,
      "inputs": [
        {
          "internalType": "uint256",
          "name": "property",
          "type": "uint256"
        },
        {
          "internalType": "enum LandRegistry.reqStatus",
          "name": "status",
          "type": "uint8"
        }
      ],
      "name": "processRequest",
      "outputs": [],
      "payable": false,
      "stateMutability": "nonpayable",
      "type": "function"
    },
    {
      "constant": false,
      "inputs": [
        {
          "internalType": "uint256",
          "name": "property",
          "type": "uint256"
        }
      ],
      "name": "buyProperty",
      "outputs": [],
      "payable": true,
      "stateMutability": "payable",
      "type": "function"
    },
    {
      "constant": true,
      "inputs": [
        {
          "internalType": "uint256",
          "name": "id",
          "type": "uint256"
        },
        {
          "internalType": "address",
          "name": "user",
          "type": "address"
        }
      ],
      "name": "findId",
      "outputs": [
        {
          "internalType": "uint256",
          "name": "",
          "type": "uint256"
        }
      ],
      "payable": false,
      "stateMutability": "view",
      "type": "function"
    },
    {
      "constant": false,
      "inputs": [
        {
          "internalType": "uint256",
          "name": "id",
          "type": "uint256"
        },
        {
          "internalType": "string",
          "name": "newIPFSHash",
          "type": "string"
        }
      ],
      "name": "updateIPFSHash",
      "outputs": [],
      "payable": false,
      "stateMutability": "nonpayable",
      "type": "function"
    },
    {
      "constant": false,
      "inputs": [
        {
          "internalType": "uint256",
          "name": "id",
          "type": "uint256"
        }
      ],
      "name": "removeProperty",
      "outputs": [],
      "payable": false,
      "stateMutability": "nonpayable",
      "type": "function"
    }
  ],
  "bytecode": "0x608060405234801561001057600080fd5b5033600260006101000a81548173ffffffffffffffffffffffffffffffffffffffff021916908373ffffffffffffffffffffffffffffffffffffffff160217905550613759806100616000396000f3fe6080604052600436106100fe5760003560e01c806380a69c2a11610095578063ae32a32511610064578063ae32a32514611212578063baa39e051461127e578063bc43d06f146112b9578063f2c7027f146112f4578063fdb10f5014611475576100fe565b806380a69c2a14610c62578063861e465614610d34578063a27664ee14610fb5578063a87430ba14611024576100fe565b8063621fdbb7116100d1578063621fdbb7146107c95780636c5ed93914610a0b5780636f77926b14610a465780636fa830a614610c34576100fe565b80630d2d5dca146101035780630e435f081461016f5780633e40e2961461044857806355d61952146105bb575b600080fd5b34801561010f57600080fd5b506101186114bd565b6040518080602001828103825283818151815260200191508051906020019060200280838360005b8381101561015b578082015181840152602081019050610140565b505050509050019250505060405180910390f35b34801561017b57600080fd5b5061042e600480360360e081101561019257600080fd5b81019080803573ffffffffffffffffffffffffffffffffffffffff169060200190929190803590602001906401000000008111156101cf57600080fd5b8201836020820111156101e157600080fd5b8035906020019184600183028401116401000000008311171561020357600080fd5b91908080601f016020809104026020016040519081016040528093929190818152602001838380828437600081840152601f19601f8201169050808301925050505050505091929192908035906020019064010000000081111561026657600080fd5b82018360208201111561027857600080fd5b8035906020019184600183028401116401000000008311171561029a57600080fd5b91908080601f016020809104026020016040519081016040528093929190818152602001838380828437600081840152601f19601f82011690508083019250505050505050919291929080359060200190929190803590602001909291908035906020019064010000000081111561031157600080fd5b82018360208201111561032357600080fd5b8035906020019184600183028401116401000000008311171561034557600080fd5b91908080601f016020809104026020016040519081016040528093929190818152602001838380828437600081840152601f19601f820116905080830192505050505050509192919290803590602001906401000000008111156103a857600080fd5b8201836020820111156103ba57600080fd5b803590602001918460018302840111640100000000831117156103dc57600080fd5b91908080601f016020809104026020016040519081016040528093929190818152602001838380828437600081840152601f19601f820116905080830192505050505050509192919290505050611555565b604051808215151515815260200191505060405180910390f35b34801561045457600080fd5b506105a56004803603604081101561046b57600080fd5b810190808035906020019064010000000081111561048857600080fd5b82018360208201111561049a57600080fd5b803590602001918460018302840111640100000000831117156104bc57600080fd5b91908080601f016020809104026020016040519081016040528093929190818152602001838380828437600081840152601f19601f8201169050808301925050505050505091929192908035906020019064010000000081111561051f57600080fd5b82018360208201111561053157600080fd5b8035906020019184600183028401116401000000008311171561055357600080fd5b91908080601f016020809104026020016040519081016040528093929190818152602001838380828437600081840152601f19601f8201169050808301925050505050505091929192905050506117cd565b6040518082815260200191505060405180910390f35b3480156105c757600080fd5b506105f4600480360360208110156105de57600080fd5b81019080803590602001909291905050506118ae565b604051808873ffffffffffffffffffffffffffffffffffffffff1673ffffffffffffffffffffffffffffffffffffffff1681526020018060200187815260200180602001806020018673ffffffffffffffffffffffffffffffffffffffff1673ffffffffffffffffffffffffffffffffffffffff16815260200185600381111561067a57fe5b60ff16815260200184810384528a818151815260200191508051906020019080838360005b838110156106ba57808201518184015260208101905061069f565b50505050905090810190601f1680156106e75780820380516001836020036101000a031916815260200191505b50848103835288818151815260200191508051906020019080838360005b83811015610720578082015181840152602081019050610705565b50505050905090810190601f16801561074d5780820380516001836020036101000a031916815260200191505b50848103825287818151815260200191508051906020019080838360005b8381101561078657808201518184015260208101905061076b565b50505050905090810190601f1680156107b35780820380516001836020036101000a031916815260200191505b509a505050505050505050505060405180910390f35b3480156107d557600080fd5b506109f1600480360360c08110156107ec57600080fd5b81019080803573ffffffffffffffffffffffffffffffffffffffff1690602001909291908035906020019064010000000081111561082957600080fd5b82018360208201111561083b57600080fd5b8035906020019184600183028401116401000000008311171561085d57600080fd5b91908080601f016020809104026020016040519081016040528093929190818152602001838380828437600081840152601f19601f82011690508083019250505050505050919291929080359060200190929190803590602001906401000000008111156108ca57600080fd5b8201836020820111156108dc57600080fd5b803590602001918460018302840111640100000000831117156108fe57600080fd5b91908080601f016020809104026020016040519081016040528093929190818152602001838380828437600081840152601f19601f820116905080830192505050505050509192919290803590602001909291908035906020019064010000000081111561096b57600080fd5b82018360208201111561097d57600080fd5b8035906020019184600183028401116401000000008311171561099f57600080fd5b91908080601f016020809104026020016040519081016040528093929190818152602001838380828437600081840152601f19601f820116905080830192505050505050509192919290505050611b92565b604051808215151515815260200191505060405180910390f35b348015610a1757600080fd5b50610a4460048036036020811015610a2e57600080fd5b8101908080359060200190929190505050611d68565b005b348015610a5257600080fd5b50610a9560048036036020811015610a6957600080fd5b81019080803573ffffffffffffffffffffffffffffffffffffffff169060200190929190505050611e58565b604051808873ffffffffffffffffffffffffffffffffffffffff1673ffffffffffffffffffffffffffffffffffffffff1681526020018060200187815260200180602001868152602001806020018515151515815260200184810384528a818151815260200191508051906020019080838360005b83811015610b25578082015181840152602081019050610b0a565b50505050905090810190601f168015610b525780820380516001836020036101000a031916815260200191505b50848103835288818151815260200191508051906020019080838360005b83811015610b8b578082015181840152602081019050610b70565b50505050905090810190601f168015610bb85780820380516001836020036101000a031916815260200191505b50848103825286818151815260200191508051906020019080838360005b83811015610bf1578082015181840152602081019050610bd6565b50505050905090810190601f168015610c1e5780820380516001836020036101000a031916815260200191505b509a505050505050505050505060405180910390f35b610c6060048036036020811015610c4a57600080fd5b81019080803590602001909291905050506122ad565b005b348015610c6e57600080fd5b50610d3260048036036040811015610c8557600080fd5b810190808035906020019092919080359060200190640100000000811115610cac57600080fd5b820183602082011115610cbe57600080fd5b80359060200191846001830284011164010000000083111715610ce057600080fd5b91908080601f016020809104026020016040519081016040528093929190818152602001838380828437600081840152601f19601f820116905080830192505050505050509192919290505050612609565b005b348015610d4057600080fd5b50610d6d60048036036020811015610d5757600080fd5b81019080803590602001909291905050506126f2565b604051808a73ffffffffffffffffffffffffffffffffffffffff1673ffffffffffffffffffffffffffffffffffffffff168152602001806020018060200189815260200188815260200180602001806020018773ffffffffffffffffffffffffffffffffffffffff1673ffffffffffffffffffffffffffffffffffffffff168152602001866003811115610dfd57fe5b60ff16815260200185810385528d818151815260200191508051906020019080838360005b83811015610e3d578082015181840152602081019050610e22565b50505050905090810190601f168015610e6a5780820380516001836020036101000a031916815260200191505b5085810384528c818151815260200191508051906020019080838360005b83811015610ea3578082015181840152602081019050610e88565b50505050905090810190601f168015610ed05780820380516001836020036101000a031916815260200191505b50858103835289818151815260200191508051906020019080838360005b83811015610f09578082015181840152602081019050610eee565b50505050905090810190601f168015610f365780820380516001836020036101000a031916815260200191505b50858103825288818151815260200191508051906020019080838360005b83811015610f6f578082015181840152602081019050610f54565b50505050905090810190601f168015610f9c5780820380516001836020036101000a031916815260200191505b509d505050505050505050505050505060405180910390f35b348015610fc157600080fd5b5061100e60048036036040811015610fd857600080fd5b8101908080359060200190929190803573ffffffffffffffffffffffffffffffffffffffff1690602001909291905050506129ed565b6040518082815260200191505060405180910390f35b34801561103057600080fd5b506110736004803603602081101561104757600080fd5b81019080803573ffffffffffffffffffffffffffffffffffffffff169060200190929190505050612ac2565b604051808873ffffffffffffffffffffffffffffffffffffffff1673ffffffffffffffffffffffffffffffffffffffff1681526020018060200187815260200180602001868152602001806020018515151515815260200184810384528a818151815260200191508051906020019080838360005b838110156111035780820151818401526020810190506110e8565b50505050905090810190601f1680156111305780820380516001836020036101000a031916815260200191505b50848103835288818151815260200191508051906020019080838360005b8381101561116957808201518184015260208101905061114e565b50505050905090810190601f1680156111965780820380516001836020036101000a031916815260200191505b50848103825286818151815260200191508051906020019080838360005b838110156111cf5780820151818401526020810190506111b4565b50505050905090810190601f1680156111fc5780820380516001836020036101000a031916815260200191505b509a505050505050505050505060405180910390f35b34801561121e57600080fd5b50611227612cf9565b6040518080602001828103825283818151815260200191508051906020019060200280838360005b8381101561126a57808201518184015260208101905061124f565b505050509050019250505060405180910390f35b34801561128a57600080fd5b506112b7600480360360208110156112a157600080fd5b8101908080359060200190929190505050612d51565b005b3480156112c557600080fd5b506112f2600480360360208110156112dc57600080fd5b8101908080359060200190929190505050612e22565b005b34801561130057600080fd5b5061145b6004803603606081101561131757600080fd5b81019080803590602001909291908035906020019064010000000081111561133e57600080fd5b82018360208201111561135057600080fd5b8035906020019184600183028401116401000000008311171561137257600080fd5b91908080601f016020809104026020016040519081016040528093929190818152602001838380828437600081840152601f19601f820116905080830192505050505050509192919290803590602001906401000000008111156113d557600080fd5b8201836020820111156113e757600080fd5b8035906020019184600183028401116401000000008311171561140957600080fd5b91908080601f016020809104026020016040519081016040528093929190818152602001838380828437600081840152601f19601f8201169050808301925050505050505091929192905050506130c1565b604051808215151515815260200191505060405180910390f35b34801561148157600080fd5b506114bb6004803603604081101561149857600080fd5b8101908080359060200190929190803560ff169060200190929190505050613124565b005b6060600360003373ffffffffffffffffffffffffffffffffffffffff1673ffffffffffffffffffffffffffffffffffffffff16815260200190815260200160002060000180548060200260200160405190810160405280929190818152602001828054801561154b57602002820191906000526020600020905b815481526020019060010190808311611537575b5050505050905090565b60006040518061012001604052808973ffffffffffffffffffffffffffffffffffffffff168152602001888152602001878152602001868152602001858152602001848152602001838152602001600073ffffffffffffffffffffffffffffffffffffffff168152602001600060038111156115cd57fe5b8152506005600086815260200190815260200160002060008201518160000160006101000a81548173ffffffffffffffffffffffffffffffffffffffff021916908373ffffffffffffffffffffffffffffffffffffffff1602179055506020820151816001019080519060200190611646929190613542565b506040820151816002019080519060200190611663929190613542565b50606082015181600301556080820151816004015560a0820151816005019080519060200190611694929190613542565b5060c08201518160060190805190602001906116b1929190613542565b5060e08201518160070160006101000a81548173ffffffffffffffffffffffffffffffffffffffff021916908373ffffffffffffffffffffffffffffffffffffffff1602179055506101008201518160070160146101000a81548160ff0219169083600381111561171e57fe5b0217905550905050600360008973ffffffffffffffffffffffffffffffffffffffff1673ffffffffffffffffffffffffffffffffffffffff168152602001908152602001600020600001849080600181540180825580915050906001820390600052602060002001600090919290919091505550600184908060018154018082558091505090600182039060005260206000200160009091929091909150555060019050979650505050505050565b60006509184e72a00083836040516020018083805190602001908083835b6020831061180e57805182526020820191506020810190506020830392506117eb565b6001836020036101000a03801982511681845116808217855250505050505090500182805190602001908083835b6020831061185f578051825260208201915060208101905060208303925061183c565b6001836020036101000a038019825116818451168082178552505050505050905001925050506040516020818303038152906040528051906020012060001c816118a557fe5b06905092915050565b6000606060006060806000806005600089815260200190815260200160002060000160009054906101000a900473ffffffffffffffffffffffffffffffffffffffff16600560008a8152602001908152602001600020600101600560008b815260200190815260200160002060030154600560008c8152602001908152602001600020600501600560008d8152602001908152602001600020600601600560008e815260200190815260200160002060070160009054906101000a900473ffffffffffffffffffffffffffffffffffffffff16600560008f815260200190815260200160002060070160149054906101000a900460ff16858054600181600116156101000203166002900480601f016020809104026020016040519081016040528092919081815260200182805460018160011615610100020316600290048015611a3a5780601f10611a0f57610100808354040283529160200191611a3a565b820191906000526020600020905b815481529060010190602001808311611a1d57829003601f168201915b50505050509550838054600181600116156101000203166002900480601f016020809104026020016040519081016040528092919081815260200182805460018160011615610100020316600290048015611ad65780601f10611aab57610100808354040283529160200191611ad6565b820191906000526020600020905b815481529060010190602001808311611ab957829003601f168201915b50505050509350828054600181600116156101000203166002900480601f016020809104026020016040519081016040528092919081815260200182805460018160011615610100020316600290048015611b725780601f10611b4757610100808354040283529160200191611b72565b820191906000526020600020905b815481529060010190602001808311611b5557829003601f168201915b505050505092509650965096509650965096509650919395979092949650565b60006040518060e001604052808873ffffffffffffffffffffffffffffffffffffffff16815260200187815260200186815260200185815260200184815260200183815260200160011515815250600460008973ffffffffffffffffffffffffffffffffffffffff1673ffffffffffffffffffffffffffffffffffffffff16815260200190815260200160002060008201518160000160006101000a81548173ffffffffffffffffffffffffffffffffffffffff021916908373ffffffffffffffffffffffffffffffffffffffff1602179055506020820151816001019080519060200190611c82929190613542565b50604082015181600201556060820151816003019080519060200190611ca9929190613542565b506080820151816004015560a0820151816005019080519060200190611cd0929190613542565b5060c08201518160060160006101000a81548160ff02191690831515021790555090505060008790806001815401808255809150509060018203906000526020600020016000909192909190916101000a81548173ffffffffffffffffffffffffffffffffffffffff021916908373ffffffffffffffffffffffffffffffffffffffff16021790555050600190509695505050505050565b336005600083815260200190815260200160002060070160006101000a81548173ffffffffffffffffffffffffffffffffffffffff021916908373ffffffffffffffffffffffffffffffffffffffff1602179055506040518060400160405280600781526020017f50656e64696e6700000000000000000000000000000000000000000000000000815250600560008381526020019081526020016000206006019080519060200190611e1c9291906135c2565b5060016005600083815260200190815260200160002060070160146101000a81548160ff02191690836003811115611e5057fe5b021790555050565b6000606060006060600060606000600460008973ffffffffffffffffffffffffffffffffffffffff1673ffffffffffffffffffffffffffffffffffffffff16815260200190815260200160002060060160009054906101000a900460ff16156122a157600460008973ffffffffffffffffffffffffffffffffffffffff1673ffffffffffffffffffffffffffffffffffffffff16815260200190815260200160002060000160009054906101000a900473ffffffffffffffffffffffffffffffffffffffff16600460008a73ffffffffffffffffffffffffffffffffffffffff1673ffffffffffffffffffffffffffffffffffffffff168152602001908152602001600020600101600460008b73ffffffffffffffffffffffffffffffffffffffff1673ffffffffffffffffffffffffffffffffffffffff16815260200190815260200160002060020154600460008c73ffffffffffffffffffffffffffffffffffffffff1673ffffffffffffffffffffffffffffffffffffffff168152602001908152602001600020600301600460008d73ffffffffffffffffffffffffffffffffffffffff1673ffffffffffffffffffffffffffffffffffffffff16815260200190815260200160002060040154600460008e73ffffffffffffffffffffffffffffffffffffffff1673ffffffffffffffffffffffffffffffffffffffff168152602001908152602001600020600501600460008f73ffffffffffffffffffffffffffffffffffffffff1673ffffffffffffffffffffffffffffffffffffffff16815260200190815260200160002060060160009054906101000a900460ff16858054600181600116156101000203166002900480601f01602080910402602001604051908101604052809291908181526020018280546001816001161561010002031660029004801561214f5780601f106121245761010080835404028352916020019161214f565b820191906000526020600020905b81548152906001019060200180831161213257829003601f168201915b50505050509550838054600181600116156101000203166002900480601f0160208091040260200160405190810160405280929190818152602001828054600181600116156101000203166002900480156121eb5780601f106121c0576101008083540402835291602001916121eb565b820191906000526020600020905b8154815290600101906020018083116121ce57829003601f168201915b50505050509350818054600181600116156101000203166002900480601f0160208091040260200160405190810160405280929190818152602001828054600181600116156101000203166002900480156122875780601f1061225c57610100808354040283529160200191612287565b820191906000526020600020905b81548152906001019060200180831161226a57829003601f168201915b5050505050915096509650965096509650965096506122a2565b5b919395979092949650565b6003808111156122b957fe5b6005600083815260200190815260200160002060070160149054906101000a900460ff1660038111156122e857fe5b146122f257600080fd5b6509184e72a000600560008381526020019081526020016000206003015402341461231c57600080fd5b6005600082815260200190815260200160002060000160009054906101000a900473ffffffffffffffffffffffffffffffffffffffff1673ffffffffffffffffffffffffffffffffffffffff166108fc6509184e72a0006005600085815260200190815260200160002060030154029081150290604051600060405180830381858888f193505050501580156123b6573d6000803e3d6000fd5b506123f76005600083815260200190815260200160002060000160009054906101000a900473ffffffffffffffffffffffffffffffffffffffff168261333b565b336005600083815260200190815260200160002060000160006101000a81548173ffffffffffffffffffffffffffffffffffffffff021916908373ffffffffffffffffffffffffffffffffffffffff1602179055506040518060400160405280600481526020017f4e554c4c000000000000000000000000000000000000000000000000000000008152506005600083815260200190815260200160002060050190805190602001906124ab9291906135c2565b506040518060400160405280601d81526020017f4e6f742079657420617070726f7665642062792074686520676f76742e00000081525060056000838152602001908152602001600020600601908051906020019061250b9291906135c2565b5060006005600083815260200190815260200160002060070160006101000a81548173ffffffffffffffffffffffffffffffffffffffff021916908373ffffffffffffffffffffffffffffffffffffffff16021790555060006005600083815260200190815260200160002060070160146101000a81548160ff0219169083600381111561259557fe5b0217905550600360003373ffffffffffffffffffffffffffffffffffffffff1673ffffffffffffffffffffffffffffffffffffffff16815260200190815260200160002060000181908060018154018082558091505090600182039060005260206000200160009091929091909150555050565b6005600083815260200190815260200160002060000160009054906101000a900473ffffffffffffffffffffffffffffffffffffffff1673ffffffffffffffffffffffffffffffffffffffff163373ffffffffffffffffffffffffffffffffffffffff16146126c3576040517f08c379a00000000000000000000000000000000000000000000000000000000081526004018080602001828103825260238152602001806136dc6023913960400191505060405180910390fd5b806005600084815260200190815260200160002060010190805190602001906126ed9291906135c2565b505050565b60056020528060005260406000206000915090508060000160009054906101000a900473ffffffffffffffffffffffffffffffffffffffff1690806001018054600181600116156101000203166002900480601f0160208091040260200160405190810160405280929190818152602001828054600181600116156101000203166002900480156127c45780601f10612799576101008083540402835291602001916127c4565b820191906000526020600020905b8154815290600101906020018083116127a757829003601f168201915b505050505090806002018054600181600116156101000203166002900480601f0160208091040260200160405190810160405280929190818152602001828054600181600116156101000203166002900480156128625780601f1061283757610100808354040283529160200191612862565b820191906000526020600020905b81548152906001019060200180831161284557829003601f168201915b505050505090806003015490806004015490806005018054600181600116156101000203166002900480601f01602080910402602001604051908101604052809291908181526020018280546001816001161561010002031660029004801561290c5780601f106128e15761010080835404028352916020019161290c565b820191906000526020600020905b8154815290600101906020018083116128ef57829003601f168201915b505050505090806006018054600181600116156101000203166002900480601f0160208091040260200160405190810160405280929190818152602001828054600181600116156101000203166002900480156129aa5780601f1061297f576101008083540402835291602001916129aa565b820191906000526020600020905b81548152906001019060200180831161298d57829003601f168201915b5050505050908060070160009054906101000a900473ffffffffffffffffffffffffffffffffffffffff16908060070160149054906101000a900460ff16905089565b600080600090505b600360008473ffffffffffffffffffffffffffffffffffffffff1673ffffffffffffffffffffffffffffffffffffffff16815260200190815260200160002060000180549050811015612ab75783600360008573ffffffffffffffffffffffffffffffffffffffff1673ffffffffffffffffffffffffffffffffffffffff1681526020019081526020016000206000018281548110612a9057fe5b90600052602060002001541415612aaa5780915050612abc565b80806001019150506129f5565b809150505b92915050565b60046020528060005260406000206000915090508060000160009054906101000a900473ffffffffffffffffffffffffffffffffffffffff1690806001018054600181600116156101000203166002900480601f016020809104026020016040519081016040528092919081815260200182805460018160011615610100020316600290048015612b945780601f10612b6957610100808354040283529160200191612b94565b820191906000526020600020905b815481529060010190602001808311612b7757829003601f168201915b505050505090806002015490806003018054600181600116156101000203166002900480601f016020809104026020016040519081016040528092919081815260200182805460018160011615610100020316600290048015612c385780601f10612c0d57610100808354040283529160200191612c38565b820191906000526020600020905b815481529060010190602001808311612c1b57829003601f168201915b505050505090806004015490806005018054600181600116156101000203166002900480601f016020809104026020016040519081016040528092919081815260200182805460018160011615610100020316600290048015612cdc5780601f10612cb157610100808354040283529160200191612cdc565b820191906000526020600020905b815481529060010190602001808311612cbf57829003601f168201915b5050505050908060060160009054906101000a900460ff16905087565b60606001805480602002602001604051908101604052809291908181526020018280548015612d4757602002820191906000526020600020905b815481526020019060010190808311612d33575b5050505050905090565b3373ffffffffffffffffffffffffffffffffffffffff166005600083815260200190815260200160002060000160009054906101000a900473ffffffffffffffffffffffffffffffffffffffff1673ffffffffffffffffffffffffffffffffffffffff1614612dbf57600080fd5b6040518060400160405280600981526020017f417661696c61626c650000000000000000000000000000000000000000000000815250600560008381526020019081526020016000206006019080519060200190612e1e9291906135c2565b5050565b600073ffffffffffffffffffffffffffffffffffffffff166005600083815260200190815260200160002060000160009054906101000a900473ffffffffffffffffffffffffffffffffffffffff1673ffffffffffffffffffffffffffffffffffffffff161415612efb576040517f08c379a00000000000000000000000000000000000000000000000000000000081526004018080602001828103825260178152602001807f50726f706572747920646f6573206e6f7420657869737400000000000000000081525060200191505060405180910390fd5b3373ffffffffffffffffffffffffffffffffffffffff166005600083815260200190815260200160002060000160009054906101000a900473ffffffffffffffffffffffffffffffffffffffff1673ffffffffffffffffffffffffffffffffffffffff1614612fb5576040517f08c379a00000000000000000000000000000000000000000000000000000000081526004018080602001828103825260268152602001806136ff6026913960400191505060405180910390fd5b60056000828152602001908152602001600020600080820160006101000a81549073ffffffffffffffffffffffffffffffffffffffff02191690556001820160006130009190613642565b6002820160006130109190613642565b600382016000905560048201600090556005820160006130309190613642565b6006820160006130409190613642565b6007820160006101000a81549073ffffffffffffffffffffffffffffffffffffffff02191690556007820160146101000a81549060ff02191690555050613087338261333b565b7f586b7d6bbe3535c99fbb4b183ce687d76307b7b4cb5a6a11e32ce06199d811fc816040518082815260200191505060405180910390a150565b6000826005600086815260200190815260200160002060050190805190602001906130ed9291906135c2565b50816005600086815260200190815260200160002060060190805190602001906131189291906135c2565b50600190509392505050565b3373ffffffffffffffffffffffffffffffffffffffff166005600084815260200190815260200160002060000160009054906101000a900473ffffffffffffffffffffffffffffffffffffffff1673ffffffffffffffffffffffffffffffffffffffff161461319257600080fd5b806005600084815260200190815260200160002060070160146101000a81548160ff021916908360038111156131c457fe5b02179055506040518060400160405280600881526020017f417070726f7665640000000000000000000000000000000000000000000000008152506005600084815260200190815260200160002060060190805190602001906132289291906135c2565b506002600381111561323657fe5b81600381111561324257fe5b14156133375760006005600084815260200190815260200160002060070160006101000a81548173ffffffffffffffffffffffffffffffffffffffff021916908373ffffffffffffffffffffffffffffffffffffffff16021790555060006005600084815260200190815260200160002060070160146101000a81548160ff021916908360038111156132d157fe5b02179055506040518060400160405280600981526020017f417661696c61626c6500000000000000000000000000000000000000000000008152506005600084815260200190815260200160002060060190805190602001906133359291906135c2565b505b5050565b600061334782846129ed565b9050600360008473ffffffffffffffffffffffffffffffffffffffff1673ffffffffffffffffffffffffffffffffffffffff1681526020019081526020016000206000016001600360008673ffffffffffffffffffffffffffffffffffffffff1673ffffffffffffffffffffffffffffffffffffffff1681526020019081526020016000206000018054905003815481106133de57fe5b9060005260206000200154600360008573ffffffffffffffffffffffffffffffffffffffff1673ffffffffffffffffffffffffffffffffffffffff168152602001908152602001600020600001828154811061343657fe5b9060005260206000200181905550600360008473ffffffffffffffffffffffffffffffffffffffff1673ffffffffffffffffffffffffffffffffffffffff1681526020019081526020016000206000016001600360008673ffffffffffffffffffffffffffffffffffffffff1673ffffffffffffffffffffffffffffffffffffffff1681526020019081526020016000206000018054905003815481106134d957fe5b9060005260206000200160009055600360008473ffffffffffffffffffffffffffffffffffffffff1673ffffffffffffffffffffffffffffffffffffffff16815260200190815260200160002060000180548091906001900361353c919061368a565b50505050565b828054600181600116156101000203166002900490600052602060002090601f016020900481019282601f1061358357805160ff19168380011785556135b1565b828001600101855582156135b1579182015b828111156135b0578251825591602001919060010190613595565b5b5090506135be91906136b6565b5090565b828054600181600116156101000203166002900490600052602060002090601f016020900481019282601f1061360357805160ff1916838001178555613631565b82800160010185558215613631579182015b82811115613630578251825591602001919060010190613615565b5b50905061363e91906136b6565b5090565b50805460018160011615610100020316600290046000825580601f106136685750613687565b601f01602090049060005260206000209081019061368691906136b6565b5b50565b8154818355818111156136b1578183600052602060002091820191016136b091906136b6565b5b505050565b6136d891905b808211156136d45760008160009055506001016136bc565b5090565b9056fe4f6e6c7920746865206f776e65722063616e20757064617465204950465320686173684f6e6c7920746865206f776e65722063616e2072656d6f7665207468652070726f7065727479a265627a7a72315820dc338727dd428bbc444e3831a1bc1d4b61c7afd399e6bbc4a70014e52c25601a64736f6c63430005100032",
  "source": "pragma solidity ^0.5.0;\r\n\r\ncontract LandRegistry {\r\n    struct Task {\r\n        uint256 id;\r\n        string content;\r\n        bool completed;\r\n    }\r\n    struct user {\r\n        address userid;\r\n        string uname;\r\n        uint256 ucontact;\r\n        string uemail;\r\n        uint256 upostalCode;\r\n        string city;\r\n        bool exist;\r\n    }\r\n    struct landDetails {\r\n        address payable id;\r\n        string ipfsHash;\r\n        string laddress;\r\n        uint256 lamount;\r\n        uint256 key;\r\n        string isGovtApproved;\r\n        string isAvailable;\r\n        address requester;\r\n       \r\n        reqStatus requestStatus;\r\n    }\r\n\r\n    address[] userarr;\r\n    uint256[] assets;\r\n    address owner;\r\n    enum reqStatus {Default, Pending, Rejected, Approved}\r\n\r\n    constructor() public {\r\n        owner = msg.sender;\r\n    }\r\n\r\n    struct profiles {\r\n        uint256[] assetList;\r\n    }\r\n\r\n    mapping(address => profiles) profile;\r\n\r\n    mapping(address => user) public users;\r\n    mapping(uint256 => landDetails) public land;\r\n\r\n    function addUser(\r\n        address uid,\r\n        string memory _uname,\r\n        uint256 _ucontact,\r\n        string memory _uemail,\r\n        uint256 _ucode,\r\n        string memory _ucity\r\n    ) public returns (bool) {\r\n        users[uid] = user(\r\n            uid,\r\n            _uname,\r\n            _ucontact,\r\n            _uemail,\r\n            _ucode,\r\n            _ucity,\r\n            true\r\n        );\r\n        userarr.push(uid);\r\n        return true;\r\n    }\r\n\r\n    function getUser(address uid)\r\n        public\r\n        view\r\n        returns (\r\n            address,\r\n            string memory,\r\n            uint256,\r\n            string memory,\r\n            uint256,\r\n            string memory,\r\n            bool\r\n        )\r\n    {\r\n        if (users[uid].exist)\r\n            return (\r\n                users[uid].userid,\r\n                users[uid].uname,\r\n                users[uid].ucontact,\r\n                users[uid].uemail,\r\n                users[uid].upostalCode,\r\n                users[uid].city,\r\n                users[uid].exist\r\n            );\r\n    }\r\n\r\n    function Registration(\r\n        address payable _id,\r\n        string memory _ipfsHash,\r\n        string memory _laddress,\r\n        uint256 _lamount,\r\n        uint256 _key,\r\n        string memory status,\r\n        string memory _isAvailable\r\n    ) public returns (bool) {\r\n        land[_key] = landDetails(\r\n            _id,\r\n            _ipfsHash,\r\n            _laddress,\r\n            _lamount,\r\n            _key,\r\n            status,\r\n            _isAvailable,\r\n            0x0000000000000000000000000000000000000000,\r\n            reqStatus.Default\r\n        );\r\n        profile[_id].assetList.push(_key);\r\n        assets.push(_key);\r\n        return true;\r\n    }\r\n\r\n    function computeId(string memory _laddress, string memory _lamount)\r\n        public\r\n        view\r\n        returns (uint256)\r\n    {\r\n        return\r\n            uint256(keccak256(abi.encodePacked(_laddress, _lamount))) %\r\n            10000000000000;\r\n    }\r\n\r\n    function viewAssets() public view returns (uint256[] memory) {\r\n        return (profile[msg.sender].assetList);\r\n    }\r\n\r\n    function Assets() public view returns (uint256[] memory) {\r\n        return assets;\r\n    }\r\n\r\n    function landInfoOwner(uint256 id)\r\n        public\r\n        view\r\n        returns (\r\n            address payable,\r\n            string memory,\r\n            uint256,\r\n            string memory,\r\n            string memory,\r\n            address,\r\n            reqStatus\r\n        )\r\n    {\r\n        return (\r\n            land[id].id,\r\n            land[id].ipfsHash,\r\n            land[id].lamount,\r\n            land[id].isGovtApproved,\r\n            land[id].isAvailable,\r\n            land[id].requester,\r\n            land[id].requestStatus\r\n        );\r\n    }\r\n\r\n    function govtStatus(\r\n        uint256 _id,\r\n        string memory status,\r\n        string memory _isAvailable\r\n    ) public returns (bool) {\r\n        land[_id].isGovtApproved = status;\r\n        land[_id].isAvailable = _isAvailable;\r\n        return true;\r\n    }\r\n\r\n    function makeAvailable(uint256 property) public {\r\n        require(land[property].id == msg.sender);\r\n        land[property].isAvailable = \"Available\";\r\n    }\r\n\r\n    function requstToLandOwner(uint256 id) public {\r\n        land[id].requester = msg.sender;\r\n        land[id].isAvailable = \"Pending\";\r\n        land[id].requestStatus = reqStatus.Pending;\r\n    }\r\n\r\n    function processRequest(uint256 property, reqStatus status) public {\r\n        require(land[property].id == msg.sender);\r\n        land[property].requestStatus = status;\r\n        land[property].isAvailable = \"Approved\";\r\n        if (status == reqStatus.Rejected) {\r\n            land[property].requester = address(0);\r\n            land[property].requestStatus = reqStatus.Default;\r\n            land[property].isAvailable = \"Available\";\r\n        }\r\n    }\r\n\r\n    \r\n    function buyProperty(uint256 property) public payable {\r\n        require(land[property].requestStatus == reqStatus.Approved);\r\n        require(msg.value == (land[property].lamount * 10000000000000));\r\n        land[property].id.transfer(\r\n            land[property].lamount * 10000000000000\r\n        );\r\n// function buyProperty(uint256 property) public payable {\r\n//     require(land[property].requestStatus == reqStatus.Approved, \"Property purchase not approved\");\r\n\r\n//     // Calculate total price of the property\r\n//     uint256 totalPrice = land[property].lamount * 10000000000000;\r\n\r\n//     // Calculate stamp duty (8% of the total price)\r\n//     uint256 stampDuty = totalPrice * 8 / 100;\r\n    \r\n\r\n//    // Ensure that the buyer sends enough funds to cover the total amount\r\n//     require(msg.value == totalPrice + stampDuty, \"Insufficient funds\");\r\n\r\n//    // Transfer payment to the seller\r\n//     address payable seller = land[property].id;\r\n//     seller.transfer(totalPrice);\r\n\r\n//     //Transfer stamp duty to the government account\r\n//     address payable governmentAccount = address(uint160(0x3f2D35d9c80d589EE25631c997373e858010831D));\r\n//    governmentAccount.transfer(stampDuty);\r\n\r\n    //Update ownership and status\r\n    removeOwnership(land[property].id, property);\r\n    land[property].id = msg.sender;\r\n    land[property].isGovtApproved = \"NULL\";\r\n    land[property].isAvailable = \"Not yet approved by the govt.\";\r\n    land[property].requester = address(0);\r\n    land[property].requestStatus = reqStatus.Default;\r\n    profile[msg.sender].assetList.push(property);\r\n}\r\n\r\n\r\n    function removeOwnership(address previousOwner, uint256 id) private {\r\n        uint256 index = findId(id, previousOwner);\r\n        profile[previousOwner].assetList[index] = profile[previousOwner]\r\n            .assetList[profile[previousOwner].assetList.length - 1];\r\n        delete profile[previousOwner].assetList[profile[previousOwner]\r\n            .assetList\r\n            .length - 1];\r\n        profile[previousOwner].assetList.length--;\r\n    }\r\n\r\n    function findId(uint256 id, address user) public view returns (uint256) {\r\n        uint256 i;\r\n        for (i = 0; i < profile[user].assetList.length; i++) {\r\n            if (profile[user].assetList[i] == id) return i;\r\n        }\r\n        return i;\r\n    }\r\n\r\n    function updateIPFSHash(uint256 id, string memory newIPFSHash) public {\r\n// removeOwnership(land[id].id, id);\r\n// land[id].id = msg.sender;\r\n// land[id].isGovtApproved = \"NULL\";\r\n// land[id].isAvailable = \"Not yet approved by the govt.\";\r\n// land[id].requester = address(0);\r\n// land[id].requestStatus = reqStatus.Default;\r\n// profile[msg.sender].assetList.push(id);\r\nrequire(msg.sender == land[id].id, \"Only the owner can update IPFS hash\");\r\nland[id].ipfsHash = newIPFSHash;\r\n\r\n    }\r\n    event PropertyRemoved(uint256 id);\r\n    function removeProperty(uint256 id) public {\r\n    // Check if the property with the given ID exists\r\n    require(land[id].id != address(0), \"Property does not exist\");\r\n\r\n    // Ensure that only the owner of the property can remove it\r\n    require(land[id].id == msg.sender, \"Only the owner can remove the property\");\r\n\r\n    // Remove the property by deleting it from the mapping and the owner's asset list\r\n    delete land[id];\r\n    removeOwnership(msg.sender, id);\r\n\r\n    // Emit an event to indicate that the property has been removed\r\n    emit PropertyRemoved(id);\r\n}\r\n\r\n}\r\n",
  "sourcePath": "D:\\Btech\\Main Project\\4\\pro_main\\src\\contracts\\LandRegistry.sol",
  "compiler": {
    "name": "solc",
    "version": "0.5.16+commit.9c3226ce.Emscripten.clang"
  },
  "schemaVersion": "3.4.16",
  "updatedAt": "2024-05-03T02:14:34.909Z",
  "networkType": "ethereum",
  "devdoc": {
    "methods": {}
  },
  "userdoc": {
    "methods": {}
  }
}